:020000040800F2
:10000000400A0020B5020008755A0008F1560008A1
:1000100000000000000000000000000000000000E0
:100020000000000000000000000000007B5A0008F3
:100030000000000000000000795A0008CD5A0008B6
:10004000C7020008C7020008C7020008C70200086C
:10005000C7020008C7020008C7020008C70200085C
:10006000C7020008C7020008C7020008C70200084C
:10007000C7020008C7020008C7020008755B000835
:10008000855B0008C7020008955B000800000000BF
:10009000C7020008C7020008C7020008C70200081C
:1000A000C7020008C7020008C7020008156C000854
:1000B000C7020008C7020008C7020008C7020008FC
:1000C00000F002F800F0CBF812A030C8083824186D
:1000D0002D18AC4201D100F0C2F80FCCA246AB46BD
:1000E0000CA730CF2D1B083F3F197C427F1E544484
:1000F0002D090426F441641EAC4201D300F0AFF890
:100100000126334200D0FB1A3343984754465D46DC
:10011000DFE70000F871000018720000103A02D307
:1001200078C878C1FAD8520701D330C830C101D598
:1001300004680C6070470000704700000023002432
:1001400000250026103A01D378C1FBD8520700D30E
:1001500030C100D50B60704710B56E2902D100F098
:1001600067FC10BD702902D100F0A9FD10BD662901
:1001700002D106F0EBFF10BD652902D106F0E6FFC3
:1001800010BD672902D106F0E1FF10BD612902D13F
:1001900006F0E4FF10BD03681B0A01D38023194356
:1001A000692902D100F00EFC10BD642902D100F0D3
:1001B00009FC10BD752902D100F004FC10BD6F29A7
:1001C00002D100F027FD10BD782902D100F064FDB6
:1001D00010BDE92902D100F0C3FC10BDE42902D111
:1001E00000F0BEFC10BDF52902D100F0B9FC10BD35
:1001F000EF2902D100F01AFD10BDF82902D100F05C
:1002000059FD10BD0368DB0901D38023194363291D
:1002100002D101F07CFA10BD732902D101F07FFAFE
:1002200010BDE32902D101F089FA10BDF32902D1F2
:1002300001F08CFA10BD002010BD1FB501F01AFBB3
:1002400004000020002106F03BFE401C60600020FE
:10025000002106F01FFEE0601FBD10B510BD01F0CB
:10026000E1FA1146FFF7E9FF06F032FD01F076FEF4
:1002700003B4FFF7F2FF03BC01F010FF70B50546B1
:100280000C46164602E00FCC0FC5103E102EFAD2D7
:10029000082E02D303CC03C5083E042E07D301CC9D
:1002A00001C5361F03E021782970641C6D1C761E81
:1002B000F9D270BD0748804707480047FEE7FEE7D0
:1002C000FEE7FEE7FEE7FEE704480549054A064B60
:1002D00070470000715B0008C10000084004002066
:1002E000400A00204006002040060020FEB50446DB
:1002F00010460D46184373D0A6468C460020A41A1B
:1003000001469D4167D36646002701243D46B61A43
:100310009D4102D313463A462124654676462F0472
:10032000360C3E432D0CB61A9D4104D3150C1B040C
:100330002B4312041034654676462F06360A3E4398
:100340002D0AB61A9D4104D3150E1B022B4312022F
:100350000834654676462F0736093E432D09B61AFE
:100360009D4104D3150F1B012B431201241D65462B
:100370007646AF07B6083E43AD08B61A9D4104D392
:10038000950F9B002B439200A41C65467646EF0711
:1003900076083E436D08B61A9D411AD392185B4108
:1003A000641C16E00018764665464941B71A9D411F
:1003B0000191009009D36046B11A98418E46844657
:1003C000009801990025401C6941DD0752082A4325
:1003D0005B08641EE6D57246634603B0F0BDFFE7D6
:1003E0002046284307D00020C0430146C046C046EF
:1003F00022462B46F1E700200146F7E70FB41CB573
:10040000084B06AA7B4469460090059800F029FB3A
:1004100004460020694600F037FB20461CBC08BC9F
:1004200004B01847810600000FB41CB50C0007AAE1
:10043000009007D04142A14202D30019401E01E0C2
:100440000020C043074B7B4469460190069800F0AA
:1004500008FB0021002C01D0009A11701CBC08BCC4
:1004600004B0184749060000034670B502460B4326
:100470009B070FD10E4CE60100E008C208C91D1B06
:100480009D433542F9D0D9B21170521C00290DD0CC
:100490001B0AF8E70B78491C1370521C002B05D07F
:1004A0000B78491C1370521C002BF3D170BD000057
:1004B00001010101F8B5042A2CD3830712D00B786F
:1004C000491C0370401C521E83070BD00B78491C3B
:1004D0000370401C521E830704D00B78491C037024
:1004E000401C521E8B079B0F05D0C91ADF0020232A
:1004F000DE1B08C90AE0FFF7C1FEF8BD1D4608C9AA
:10050000FD401C46B4402C4310C0121F042AF5D2F3
:10051000F308C91A521EF0D40B78491C0370401C12
:10052000521EEAD40B78491C0370401C012AE4D403
:1005300009780170F8BD01E004C0091F0429FBD24D
:100540008B0701D50280801CC90700D0027070475C
:1005500000290BD0C30702D00270401C491E02299B
:1005600004D3830702D50280801C891EE3E70022A2
:10057000EEE70022DFE70000002203098B422CD3C4
:10058000030A8B4211D300239C464EE003460B43E3
:100590003CD4002243088B4231D303098B421CD345
:1005A000030A8B4201D394463FE0C3098B4201D337
:1005B000CB01C01A524183098B4201D38B01C01A6F
:1005C000524143098B4201D34B01C01A52410309E6
:1005D0008B4201D30B01C01A5241C3088B4201D395
:1005E000CB00C01A524183088B4201D38B00C01A42
:1005F000524143088B4201D34B00C01A5241411A69
:1006000000D201465241104670475DE0CA0F00D04B
:100610004942031000D3404253409C460022030944
:100620008B422DD3030A8B4212D38901FC2212BACA
:10063000030A8B420CD3890192118B4208D38901A2
:1006400092118B4204D389013AD0921100E08909BA
:10065000C3098B4201D3CB01C01A524183098B429B
:1006600001D38B01C01A524143098B4201D34B0184
:10067000C01A524103098B4201D30B01C01A5241E7
:10068000C3088B4201D3CB00C01A524183088B426E
:1006900001D38B00C01A5241D9D243088B4201D3F7
:1006A0004B00C01A5241411A00D201465241104635
:1006B00063465B1001D34042002B00D5494270478E
:1006C00063465B1000D3404201B50549002802DCB7
:1006D000491C084000E00846C046C04602BD00BFB5
:1006E000FFFFFF7F70477047704700000121C90579
:1006F0000123411842001B06D3185B0E0AD0C1101B
:100700000722D206891840075242D14201D5520031
:1007100089187047090208D50146002A03D0C10F85
:10072000C9070020704710467047420202D00020DF
:1007300002497047072109050143F4E70000F87FEB
:10074000F0B5FF252D04C609C209FF2704462E4037
:100750000137CB093E4348402A402B400746002A38
:100760006BD0002B69D0AA4267D0AB4265D000287D
:1007700000DA32460125ED0529432C430902200207
:10078000090AD21A4B0C7F24E31A434C000A7C441A
:10079000E35C7D242404121914145B00A21888421F
:1007A00001D3521C00E0400049420C465C43241136
:1007B0005C43DB016415E318040A5C43C502200DA9
:1007C0000C4644436419250A5D432303EC0C0D4693
:1007D000654300030019EB184C42A34201D35B1898
:1007E000401CD4052018002B07D05B00C91804D387
:1007F000401C002901D1400840003F2189048A4261
:1008000009D3002A08DC1106090F04D00321490787
:100810004018C00FC007F0BD012241001206891820
:100820007F2252069142F6D205214907C84201D5DE
:100830009010F0BDFF20C005F0BD002F00DA324659
:100840001648AA4207D2AB4205D21902090E17D0A8
:10085000F80FC007F0BDFF2563002D06AB42F9D8A5
:100860004900A942F6D8AB4201D1A942F2D0A9422F
:1008700001D1002101E061004908D0050843F0BD25
:100880001102090EFBD0FF200243D005F0BD0A463D
:100890000146104654E70000DA6900000000C07FFE
:1008A0001F22030C02D10F2200041CD0030E01D121
:1008B0000002083A030F01D10001121F830F01D17A
:1008C0008000921E002801DB4000521ED205511804
:1008D000021251181922904004D3491C002801D15A
:1008E0004908490008467047C10FC90700D0404277
:1008F000012292071143D3E701218907D0E770B5A0
:10090000044685690068C10601D5302600E020262E
:10091000C00707D070BD62683046A1689047206A62
:10092000401C20626D1EF6D570BD70B50446856909
:100930000078C00707D170BD6268A1682020904789
:10094000206A401C20626D1EF6D570BD09684A05FC
:1009500001D540B27047C905FCD500B2704709689F
:100960004A0501D5C0B27047C905FCD580B27047B1
:1009700070B50C460546012A05D02878800600D5BA
:10098000EA69002302E0012305E05B1C934202D2E6
:10099000E05C0028F9D1A869E618C01AA861286AA5
:1009A000C01828622846FFF7AAFF04E06A6820788A
:1009B000A968641C9047B442F8D32846FFF7B5FFF6
:1009C00070BD0000F7B5002575291068009914A6C0
:1009D00011D0FFF7BBFF002802DA404211A608E061
:1009E000009909688A0701D50FA602E0490704D5D6
:1009F0000EA6012501E0FFF7B2FF009F0024243777
:100A000004E000F0C8FE30313955641C0028F8D1EC
:100A10002B4632462146009800F09FFAFEBD0000AA
:100A2000000000002D0000002B000000200000004E
:100A300011680268006A530501D5087009E0D30502
:100A400001D5088005E0130602D5C21705C100E0F4
:100A5000086001207047000001694A1C02610878A3
:100A6000704700B58FB002910021059105490193AF
:100A70007944039111460490684600F02DF90FB0B7
:100A800000BD0000E5FFFFFF0A681070521C0A60FD
:100A900070470CC908399A4202D2531C0B6010707F
:100AA00070470000F7B50446154686B02B487844D9
:100AB000002703C83E460090019111E007986A465E
:100AC0007100415A02A800F045FE411C07D0217870
:100AD000890603D5E269391891420ED83F18761C71
:100AE0002078800602D5E069B84206DDAE42E5DB3B
:100AF00007987100405A0028E0D1A069C01BA0618E
:100B00002046FFF7FCFE154878445A3803C8009089
:100B10000020019116E041006A460798415A02A858
:100B200000F018FE0590401C0AD0002505E0626820
:100B300002A8A168405D90476D1C05988542F6D3D8
:100B40000498401CB0420490E5DB206AC019206282
:100B50002046FFF7EAFE09B0F0BD0000FA6600008B
:100B6000F7B5D21D0025D20815A6D200F52905CA71
:100B700011D0002A05DA00214042914111A60A460F
:100B800008E0009909688B0701D50FA602E0490724
:100B900001D50EA601251146009F0024243704E04C
:100BA00000F09EF930323A55641C02460A43F7D1F0
:100BB0002B4632462146009800F0CFF9FEBD0000DA
:100BC000000000002D0000002B00000020000000AD
:100BD00070B504460021243408E05507D2086D0F93
:100BE000303565545D072A43DB08491C15461D4313
:100BF000F3D10468002310A2250708D520252C4036
:100C00000C4304D0C46901230CA2641EC46100F02B
:100C1000A4F970BD10B5044621461068FFF79FFE89
:100C2000002302462046FFF7D3FF10BDD21DD10896
:100C3000C9000CC9CCE70000000000003000000033
:100C4000F8B50F460188090502D5224C7C4402E024
:100C5000204C7C440E3405460021243508E016075C
:100C60001209360FA65D6E541E0732431B09491C3C
:100C700016461E43F3D1224604780023240705D5E7
:100C8000702F06D0002901D00223113200F065F93F
:100C9000F8BD01231032F9E770B504460D46214630
:100CA0001068FFF75CFE0023024629462046FFF746
:100CB000C7FF70BDD21DD308DB000CCBC0E730B43A
:100CC000036820241268234303600823C36130BCF7
:100CD0000023B5E764650000F3B50446002081B049
:100CE00020622046E1688847002872D0252802D07B
:100CF0006268A168ABE0594F00267F442046E16856
:100D000088472028054608DB312D06D2781920387F
:100D10000078002801D00643F0E7B00701D5042091
:100D200086430020E0610746A0612A2D0AD02846AC
:100D300006F06FF8002827D0B8000019303D009069
:100D4000856119E00298BA00121902C891610290F7
:100D50002046E1688847012F054617D1E069002841
:100D60001FDA202086431CE000980A21806948434E
:100D700000994019303888612046E1688847054667
:100D800006F047F80028EFD1012F0AD02E2D08D108
:100D90002046E16888470546202006437F1C022F35
:100DA000C3DBA069002803DA4042A06101200643AA
:100DB000F00701D0102086436C2D0BD0682D09D090
:100DC0004C2D3CD06A2D38D0742D38D07A2D36D0A9
:100DD00016E040E0E1682F4620468847B8420546C5
:100DE00009D16C2F29D001208002E16806432046FA
:100DF0008847054604E06C2F1DD0FF2001300643D4
:100E0000002D28D028464138192803D80120C002D7
:100E100006432035204626602946029A1646FFF7EB
:100E20009BF9002810D001280BD0F61DF008C00057
:100E30000830029055E74020E1E78020D5E7002008
:100E4000D3E7361D02964CE762682846A1689047B2
:100E5000206A401C44E7206AFEBD0000DE640000FA
:100E6000C10D10B50906090E2ED0FF2931D07E29FB
:100E70002DD319D0962916D2024675398A4005D04D
:100E8000002402468A4003D3012302E00124F8E74C
:100E900000230222CA41511E8843002B03D0801830
:100EA000002C00D0904310BD0121420201D101224B
:100EB00000E00022C00FC0070029F4D0002AF2D1C0
:100EC0007F21C905084310BDC00FC00710BD002118
:100ED000EFE74102FAD0014810BD00000000C07FDA
:100EE0000B4670B5024689078008084319469D08DD
:100EF000141AA94125090807054308092C19484176
:100F0000250A01060D43010A2C194141200C0D044C
:100F100028430D0C00194D41002140194D41C008D6
:100F200069070843E908840F8D00254384002418CD
:100F30004D4124196D41121BAB4107E00925ED43DA
:100F40002C11521963410024401C61411C460A25A2
:100F50000026551BB441F1D270BDFFB504460D46C5
:100F600081B0243000902168880604D51022E06901
:100F70009143216000E00120A84201DD471B00E011
:100F800000270498A1697A191018081AA06120781E
:100F9000C00602D42046FFF7B2FC002608E0039802
:100FA0006268A168805D9047206A401C761C2062C0
:100FB00004988642F3DB2078C0060AD52046FFF766
:100FC0009EFC06E06268A16830209047206A401CC1
:100FD000206238467F1E0028F4DC07E00098626833
:100FE000A168405D9047206A401C206228466D1E23
:100FF0000028F3DC2046FFF798FC2078000602D595
:10100000022005B0F0BD0120FBE70000FFB50C4653
:101010001E468FB003CA089009914F007D0D00D184
:101020006D1E002108460020C0460321099A89054B
:101030000840002A03DA8200801840080840800D2A
:1010400001280A9002DD0020C0430A900898074357
:101050000DD0F048F0492818484307141898002884
:101060001DD07542291E1DDD0A9842421BE01898CA
:10107000012802D00020302104E00020F24305E0E6
:101080002154401CB042FBDB30460022189B00215B
:1010900021540F998B600A60486013B0F0BDBD1BEE
:1010A0006D1CDFE70A9A002900DA69420BA800F0FC
:1010B00029FC0BAB07CB03AB07C30899099800F0D9
:1010C0008DFC6B4607C30146D4480918002D0091DA
:1010D0000BDDD24903980A9A49424018002303A91C
:1010E0000390684600F0EAFE08E003990A9A00239C
:1010F000081803A90390684600F08AFE6B4607C3F0
:101100000004000C03D00020C043410800E010465A
:10111000189A002A03D00022009215461EE0751E80
:1011200005D4FFF7DDFE303262556D1EF9D5012280
:101130000843079602D000227F1C04E02078302864
:1011400001D100227F1E002A069787D01EE0112DB4
:1011500007DAFFF7C5FE303262556D1C02460A43BE
:10116000F5D1084303D00098002819D00EE00021E3
:10117000681E05E0235C625C63542254401E491CD7
:101180008142F7DBA81B401E07950690079A189925
:101190000020A0540F98079B069A81600CC07CE742
:1011A00011260020189059E7D21DF0B50D460446CF
:1011B000D10893B0C90003C90C900D9105F006FE4B
:1011C00002460D98C00F01D02D2007E0206881074E
:1011D00001D52B2002E04007C00F4001032A0F90E9
:1011E00001D0072A05DB03462946204600F046FBCE
:1011F0000EE12078800601D5E76900E00627284641
:10120000652D04D0662814D0672D69D12DE000200B
:10121000112F009001DB112300E07B1C0CAA03A915
:1012200010A8FFF7F3FE1199002610987D1C0E916F
:1012300042E001203B460CAAC0070B900120009021
:1012400003A910A8FFF7E2FE119D1298109900263D
:1012500000280E9501D1781C0D18781B02D4464247
:101260007D1C761EE81B00903AE0012F00DA012772
:101270000020112F009001DD112300E03B460CAA55
:1012800003A910A8FFF7C2FE11993D461098002649
:101290000E91217809070BD40E99A94200DA0D4668
:1012A00003A9012D04DD4A19203AD27F302A06D045
:1012B000B84201DA011D04DA012100910FE06D1E30
:1012C000EFE7002802DC86192D1A03E0411CA94231
:1012D00000DD0D46801B401C00900120C0070B90D4
:1012E0002078000705D40098A84202DB0020C04304
:1012F000009069460020C8720B98012102AF0337A5
:10130000C907884225D0022010902B2011900B98FD
:1013100000280BDA40420B902D20119006E00B982C
:1013200000F039FA30317F1E0B9039701099481E49
:1013300000291090F3DC0B980028F0D111987F1E43
:1013400038702088000501D5452000E065207F1E0B
:10135000387001A8C01BC01D0B900F98002800D04A
:10136000012041190098C01709180B980818A169A5
:10137000081A401EA0612078C00602D42046FFF75C
:10138000BEFA0F98002805D06268A1689047206ACD
:10139000401C20622078C00625D52046FFF7AFFA12
:1013A00021E0002E07DB0E98B04204DD03A862683E
:1013B000805DA16802E06268A16830209047206AE1
:1013C000761C401C20620098401E002800900AD124
:1013D00000F050FAC06862680168405CA1689047FC
:1013E000206A401C206228466D1E0028D9DC07E0D8
:1013F00062683878A1687F1C9047206A401C206290
:101400000B99481E00290B90F2DC2046FFF78DFA5D
:10141000032042E601FCFFFF104D0000E1DFFFFF6B
:10142000D21DF0B504460D46D0088DB0C000466808
:1014300007683146384605F0C9FC0246F00F01D076
:101440002D2307E02068810701D52B2302E0400708
:10145000C00F43016846002B037001D0012000E05B
:101460000020032A0A9001D0072A04DB29462046DF
:1014700000F004FA2DE12078800601D40D2500E06B
:10148000E5697000400D0D2D01904BDA300D002103
:101490000B9008460020C046032189050840002E15
:1014A00005DA82008018C20F10184010084080151D
:1014B000012801DD0020C043A9000023182906D31C
:1014C0009C460A460123183A1B07D34003E0012239
:1014D0001205CA4094460C31202902D33A462039DD
:1014E00000E032468A40002802DD002A06D119E0D9
:1014F000002817D10121C9078A4213D31946634630
:101500007F185E41002806D10120C007824202D127
:10151000084687439E430B98310D814202D00198C3
:10152000401C01902088000502D57149794402E0F1
:101530006F49794419396B460A9830221A540A982F
:101540000A7C401C1A54401C0A900198002801DCB7
:10155000302000E031201872019A0120002A02D0C8
:10156000644BD21804E072003A4302D0614A521C24
:101570000192002D02DC2278120703D56A462E2044
:10158000507202200022864694460CE03203360157
:10159000120F6D1E8B5C02AA13546246521C401C33
:1015A0009446052A01DA002DF0DC002202AE08E0A4
:1015B0003B0F3F01CB5C521C6D1E3354401C082A6C
:1015C00001DA002DF4DC23689A0601D511E0401EF3
:1015D000704504DD3218203AD27F302AF7D0002837
:1015E00007DD3218203AD27F2E2A02D11A0700D402
:1015F000401E002D03DD3E223254401C6D1E497CEE
:1016000031540199401C002906DA2D21471C315420
:1016100001984042019003E02B21471C315401986E
:101620007D21C900884206DBFEF7B0FF3030F0555F
:101630007F1C019101E0642808DB01986421FEF71A
:10164000A5FF3030F0557F1C019101E00A2806DB30
:1016500001980A21FEF79AFF3030F0557F1C01985F
:101660000A21FEF793FF3031F1550A98A1697F1CDA
:101670007A191018081AA0612078C00602D42046F2
:10168000FFF73DF9216A6E460A980818206204E0C7
:1016900062683078A168761C90470A98401E0A90CC
:1016A000401CF5D12078C00602D52046FFF727F967
:1016B00002AE09E03078761C3E280DD06268A16841
:1016C0009047206A401C20627F1EF3D22046FFF71D
:1016D0002CF90DB00320F0BD206A4019206203E010
:1016E0006268A168302090476D1EEDD3F8E70000D6
:1016F000D05C000001FCFFFF10B54369002B02D055
:10170000C046C04601E0FFF733F9012010BD127852
:10171000014624310A7000224A700122ECE7116868
:101720000022D243E8E710B54369002B02D0C0463F
:10173000C04601E0FFF7B6F9012010BD128801464E
:10174000243182840022C2840122ECE71168002245
:10175000D243E8E7F8B516460C46054600F082F895
:101760000368FF200230C05C012807D0FF2C0FD88F
:10177000185D00280CD001202C70F8BDFF333246D4
:10178000214608331868C71828460023B847F8BD13
:101790000020C043F8BD01468008081A020910184D
:1017A000020A1018020C1018C00882001218520009
:1017B000891A01E0401C0A390A29FBD2704700004F
:1017C00010B5FF231B0644009C421DD84C009C42D0
:1017D0001AD80346124A0B4307D4401A02D3EFF338
:1017E000008010BDEFF3008010BD081A03D3EFF3A3
:1017F0000080904305E0EFF3008001219043C9078A
:10180000084380F3008810BD0D231B041A4204D046
:101810001146002000F0AAFB10BD00F0BFFB10BD78
:1018200000000090754600F0C1FBAE460500694619
:101830005346C008C000854618B020B5FEF744FDE9
:1018400060BCB64600260027C0C5C0C5C0C5C0C51F
:10185000C0C5C0C5C0C5C0C5403D490849008D468A
:101860007047000010B500F005F8001D10BD00BF66
:10187000515600000048704798000020F8B51F46F8
:10188000044601230068DB02032601461840072AAC
:1018900005DB002801D017A506E017A504E0002805
:1018A00001D016A500E016A5102081432160A06993
:1018B000C01E002FA06101D0401EA0612046FFF78E
:1018C0001EF8002F09D038466268A1689047206A48
:1018D000401C2062C01C206206E0206AFAE76268B1
:1018E0002878A1686D1C9047761EF8D22046FFF735
:1018F0001CF8F8BD4E414E006E616E00494E460028
:10190000696E6600F7B516468AB0334878446C466F
:1019100003467C33C06F5A689B680DC42E487844D8
:10192000763003AC0DC80DC43720C001081837212C
:101930001B30FEF72BFE05460C46803D1B3C02D5B6
:101940006442012000E000200027099010E0E00739
:101950000CD00C2020497843794432464C39411848
:101960006846012300F054FA6B4607C364107F1CDD
:10197000002CECD1184F7F442E3F16E0E80712D020
:101980002001C0190EC80691089307920068F04222
:1019900001D1981908903246012306A903A800F046
:1019A00037FA03AB07C36D10641C002DE6D109980C
:1019B000002806D032466946012303A800F07EFACB
:1019C00005E001233246694603A800F021FA0A9B8C
:1019D00007C30DB0F0BD00000459000003464000ED
:1019E0000A4610B5400D0BD00121C9070F24A402EF
:1019F00000191C0364082143540D2143D20207E05F
:101A000000210120F2E7D40F490021435200401E7B
:101A10000029F8DADB0FDB07184310BDFFB50D46D0
:101A2000144685B04868516805F0B8F900910190F6
:101A3000A868A16805F0B2F902910390A8686168EE
:101A400005F0ACF9029A12188242029201D20120EA
:101A500000E00020019A0B18D2180028019202D051
:101A60008A4202D903E08A4201D2012000E000202C
:101A70000099081800906868A16805F08FF9029A2B
:101A800012188242029201D2012000E00020019A45
:101A90000B18D2180028019202D08A4202D903E022
:101AA0008A4201D2012000E000200099081800902D
:101AB0002868216840004900400849084018FA4950
:101AC000471814E001994000C90F0843009001989D
:101AD00002994000C90F0843019002980399400001
:101AE000C90F08430290039840007F1E039000989E
:101AF0000028E7DA0898002801D0EC4E00E0002624
:101B0000B74201DA012000E00020002804902AD02A
:101B1000F71BF806C00E15D0029B2021091A039A64
:101B20008B401A430392029A019BC2408B401A4396
:101B30000292019A009BC2408B4000991A43019285
:101B4000C14000917B110DD06F460320C11A03D50F
:101B500000218200B95003E08A008100BA587A500F
:101B6000401EF3D5374603980299002800D0012083
:101B7000014308980291002808460CD0002800D0A4
:101B800001200199019A490508430121D20AC9029D
:101B9000D202019200E001210E9B0122D207012B0B
:101BA00002D0002B03D013E0002807D120E09042A0
:101BB00004D890420CD1019B0B4209D0019B5918CB
:101BC000019105D10099491C009101D17F1C00921F
:101BD00000280DD0102108460020C0460498002897
:101BE00006D00F98002803D0082108460020C046E0
:101BF00028682168019B009A4840C10F0598C907D1
:101C000039430EC009B0F0BDFFB587B0099A0898F6
:101C10000899536892684068896896460022039341
:101C200017469446089A12685300099A5B0812688E
:101C3000520052089A1A9E4BD4180A9A002A01D0D0
:101C4000352200E04022069200220123154604922C
:101C5000DB07059324E0002D05D175460346039E5E
:101C60004D1BB34109D375466646039B491B049D32
:101C70009841059B7519AC465F4163463B4308D0CC
:101C8000059B049EDD0776082E435B0804960593AA
:101C900001E0521E641EC50FED0749184041521C59
:101CA000069B9A42D7DB002D04D17546039A6B1A26
:101CB000824101D203200CE0039A0B466B40424064
:101CC000134303D0014303D0012002E0022000E0CF
:101CD0000020614601910021009702910A99002994
:101CE00005D0614640020143704B019102E080073C
:101CF000002302909C4201DA012000E0002007004E
:101D00003AD01A1BD006C00E15D0029D2021019C8E
:101D1000091AC5408C402543029C8C4000D0012408
:101D20002543019C0295009DC4408D4000992C43A1
:101D30000194C140009154111DD06D460221002232
:101D400002290CD10320001B07E0002804DB8600D9
:101D5000AE59002E00D00122401C0328F5DB081BE1
:101D600002D588002A5004E08000285810438A00D9
:101D7000A850491EE3D51C460A98002802980CD0AA
:101D8000002800D001200199019A4905084301214A
:101D9000D20AC902D202019200E00121109B012265
:101DA000D207012B02D0002B03D013E0002807D16B
:101DB0001FE0904204D890420CD1019B0B4209D005
:101DC000019B5918019105D10099491C009101D13D
:101DD000641C009200280CD0102108460020C04648
:101DE000002F06D01198002803D0082108460020B3
:101DF000C04608980999019A009B00680968484004
:101E0000C10F0798C907214382600AC00BB0F0BD1B
:101E100000B585B0019300920A460146002302A84E
:101E2000FFF7FCFD02A807C805B000BDFFB50A46D4
:101E30001F4685B00799019301230091014602A82E
:101E4000FFF7ECFD02990398049ECA0F4900D207E0
:101E500000920F22490892028C1A0021002800DB10
:101E60000C46450013486D08844214D3079A002A93
:101E700004DA441E0026104DF64302E004460D46E7
:101E80000E46102108460020C046002F03D0042132
:101E900008460020C0462005E90A08430099084387
:101EA0006905F20A1143ADE602C0FFFF013C0000E4
:101EB000FF3F0000FF070000FFFFFF7F00B585B078
:101EC000019300920A460146002302A8FFF79CFEF8
:101ED00002A807C8A8E7FFB50A461F4685B00799BC
:101EE000019301230091014602A8FFF78DFE02999C
:101EF0000398049ECA0F4900D20700920F22490896
:101F000092028C1A0021002800DB0C464500114883
:101F10006D08844214D3079A002A04DA441E00266E
:101F20000D4DF64302E004460D460E4610210846CC
:101F30000020C046002F03D0042108460020C046E0
:101F40002005E90A0843009908436905F20A11438C
:101F500058E60000FF070000FFFFFF7F10B50446B2
:101F6000C046C0462046FEF783F910BDC80212D510
:101F70004803400F002804D0C803C0430121884013
:101F80007047EFF3008000010009032109070843AF
:101F900080F30088704700207047000010B50248A9
:101FA00000F04CF810BD00000000C07F00487047F2
:101FB00078000020024670B50A4392072AD11E4DD0
:101FC000EE0104C808C9541B9443344017D0D0B262
:101FD000D9B2401A2106014310D190B299B2401AE9
:101FE000210401430AD110021902000A090A401A09
:101FF0002102014302D1100E190E401A70BD9A42FF
:10200000DFD010BA19BA884201D9012070BD002072
:10201000C04370BD02780B78401C491C002A09D0CF
:102020009A4207D102780B78401C491C002A01D043
:102030009A42EFD0D01A70BD0101010110B50C46D3
:102040001107090F092904D00A290AD008290CD13F
:1020500004E011460820FFF789FF06E0510606D587
:1020600001E0510601D50120C007214610BDD1066F
:1020700007D501010909CC084907000E00060443F1
:1020800009E0410F20024907000A0143200E000623
:102090001D22D14101430846E7E70000014918200D
:1020A000ABBEFEE7260002007047000080B584B09A
:1020B000039003980190094800680949FEF75CFA0B
:1020C000019948430290FFE70298002804D0FFE7F7
:1020D0000298401E0290F7E704B080BD0400002083
:1020E00040420F0080B584B0029000200190029918
:1020F00009688968032211400129009005D1FFE792
:102100000298006800680090FFE70098C007002868
:1021100045D1FFE7029800688068254908420DD044
:10212000FFE70299486D102210434865029A916DAD
:1021300001200143916503A9087034E00298026808
:102140009168012001439160FFF7B0FF00F078FF34
:102150000190FFE7029800680068C00700281DD1C1
:10216000FFE700F06DFF0199401A0B2815D3FFE738
:10217000029800680068C00700280DD1FFE70299A7
:10218000486D102210434865029A916D0120014369
:10219000916503A9087006E0FFE7DBE7FFE703A905
:1021A00000200870FFE703A8007804B080BDC04697
:1021B0001700008081B0EFF3108072B60090FFE747
:1021C000FEE780B588B00690059104A9002008704C
:1021D00003900290FFE706985021405C012804D14B
:1021E000FFE707A90220087082E00699502201202B
:1021F0008854FFE7FFE706980068816803200140E4
:1022000000200129019005D1FFE7069800680068C9
:102210000190FFE70198C007002856D1FFE7069814
:10222000406D022108430122110288430699486546
:1022300006980068C0680323184002900698016859
:10224000C8689843C860069801688868D207104338
:10225000886000F0F5FE0390FFE70698006880684C
:10226000C00F012822D1FFE700F0EAFE0399401ACF
:102270000B281AD3FFE7069800688068C00F012872
:1022800012D1FFE70698406D1021084302218843D0
:1022900006994865FFE70699502200208854FFE719
:1022A00007A90120087023E0FFE7D6E7029A069805
:1022B0000168C8681043C8600698406D0121084352
:1022C000022188430699486508E00699486D202256
:1022D0001043486504A901200870FFE7FFE706994D
:1022E000502200208854FFE7049807A90870FFE7F0
:1022F00007A8007808B080BD80B584B00290019135
:10230000FFE702985021405C012804D1FFE703A9B0
:102310000220087093E00299502201208854FFE7C0
:10232000FFE70298006880680421084080080028C0
:102330000FD0FFE70299486D202210434865FFE760
:102340000299502200208854FFE703A90120087059
:1023500075E0019840683C49884234D0FFE7019815
:1023600002683B48024002980168886A104388620C
:1023700001988078400700280AD5FFE7E6490868F9
:102380000122D205104308600A20FFF78FFEFFE705
:10239000019880788007002807D5FFE7DE490868A4
:1023A0000122920510430860FFE701988078C0077A
:1023B000002807D0FFE7D849086801221206104319
:1023C0000860FFE731E001980068C2431F480243FC
:1023D00002980168886A10408862019880784007F6
:1023E000002807D5FFE7CC4908680122D2059043B1
:1023F0000860FFE7019880788007002807D5FFE78D
:10240000C54908680122920590430860FFE70198DA
:102410008078C007002807D0FFE7BF49086801227D
:10242000120690430860FFE7FFE7FFE7029950229A
:1024300000208854FFE703A900200870FFE703A8E5
:10244000007804B080BDC046011000000000F8FF15
:10245000FFFF070081B000900098406D01B0704709
:1024600081B0009000980068006C01B070470000D7
:1024700080B584B002900298002804D1FFE703A938
:102480000120087043E10298406D00280AD1FFE75F
:10249000029900208865029950228854029800F021
:1024A0003FF9FFE70298406D10210840102809D03D
:1024B000FFE702980068806804210840800800282F
:1024C0000FD0FFE70299486D102210434865FFE7DF
:1024D0000299502200208854FFE703A901200870C8
:1024E00015E10298406D0221084301210902884349
:1024F0000299486502980068816803200140002025
:102500000129019005D1FFE7029800680068019059
:10251000FFE70198C007002845D1FFE7FFE70298D1
:1025200040680321890788420ED0FFE7029840687F
:1025300001218907884207D0FFE7029840680121FE
:10254000C90788420ED1FFE7029801680869032293
:102550009207904308610298426801680869104335
:10256000086112E00298016808690322920790430B
:102570000861694908680F22920490430860029834
:102580004268086810430860FFE7FFE702980168A7
:10259000C86818229043C860029882680168C868B9
:1025A0001043C860FFE75C49086801225206904367
:1025B00008600298406B4206086810430860029861
:1025C00000688068C000002808D4FFE7029801680E
:1025D00088680122120710438860FFE702980168AB
:1025E000C8684E4A1040C86002980090C2680169ED
:1025F000891E4B42594189000A432021415C49030D
:102600000A432C21415C49000A43016B0A4381695A
:1026100089030A43C169C9030A430168C8681043B2
:10262000C8600298406AFF21C231884209D0FFE7A2
:102630000298426A816A0A430168C8681043C86008
:10264000FFE702982121405C01281AD1FFE7029898
:102650002021405C002808D1FFE702980168C86883
:10266000012212041043C8600AE00299486D20223A
:10267000104348650299886D012210438865FFE781
:10268000FFE70298C06B012818D1FFE702980168A4
:102690000869FF229200904308610298026C416C25
:1026A0000A43816C0A430168086910430861029873
:1026B000016808690122104308610EE00298006871
:1026C0000069C007002807D0FFE702980168086981
:1026D000012290430861FFE7FFE70298016848691B
:1026E0000722904348610298826B01684869104351
:1026F00048610299002088650299496D01221143C1
:1027000002229143029A516503A90870FFE703A8CA
:10271000007804B080BDC046082701401902FEFFC2
:1027200080B588B007900020069005900490039033
:10273000029007980068114988421DD1FFE71049AF
:1027400008680122520210430860FFE7E648026869
:1027500001210A4302600068084001900198FFE7E8
:1027600040200290032003900020049005200007E1
:1027700002A900F0C7FAFFE708B080BD00240140BD
:102780003410024080B586B004900391002002907E
:10279000019004984069082803D1FFE708200190C0
:1027A00019E004980068C068C00700280FD0FFE750
:1027B0000499486D202210434865FFE70499502290
:1027C00000208854FFE705A90120087086E00C204E
:1027D0000190FFE7FFE700F033FC0290FFE7049869
:1027E00000680068019908422AD1FFE70398401C5D
:1027F000002824D0FFE70398002808D0FFE700F066
:102800001FFC0299401A0399884217D9FFE70498E0
:1028100000680068019908420FD1FFE70499486DEC
:10282000042210434865FFE7049950220020885491
:10283000FFE705A90320087050E0FFE7FFE7CEE7B8
:102840000499486D012252021043486504980068BB
:10285000C0680005800F002832D1FFE704982021CE
:10286000405C00282CD1FFE704980068006800074E
:10287000002824D5FFE704980068806804210840F8
:10288000800800280FD1FFE70498016848680C22EF
:10289000904348600498406D012108430902884331
:1028A000049948650AE00499486D20221043486560
:1028B0000499886D012210438865FFE7FFE7FFE771
:1028C00004988069002805D1FFE7049801680C206E
:1028D0000860FFE705A900200870FFE705A8007859
:1028E00006B080BD80B584B0029001A900200870B8
:1028F00002980068806804210840800800283FD1C1
:10290000FFE7FFE702985021405C012804D1FFE770
:1029100003A9022008703BE002995022012088544C
:10292000FFE7FFE70298C069012806D0FFE7029899
:10293000FFF7D8FB01A90870FFE701A8007800287D
:102940001DD1FFE70298406D012109020843124999
:10295000084002994865029900208865FFE70299BE
:10296000502200208854FFE7029801681C2008606C
:10297000029801688868042210438860FFE703E03A
:1029800001A902200870FFE7019803A90870FFE77A
:1029900003A8007804B080BDFEF1FFFF86B004906C
:1029A00003910292002001900090FFE70498407983
:1029B000012804D1FFE705A90220087034E004993A
:1029C00001204871FFE7FFE704990220087104988D
:1029D0000068006801900298154981400198884379
:1029E000019003990868496808430090009902988B
:1029F0008140019808430190019804990968086092
:102A00000298C022824004980168086890430860D8
:102A1000049901200871FFE7049900204871FFE73D
:102A200005A900200870FFE705A8007806B07047E8
:102A3000FE0F000080B582B000900098002804D1FD
:102A4000FFE701A90120087017E00098007900282D
:102A500007D1FFE7009900204871009800F012F8B4
:102A6000FFE7009902200871009900200861009A90
:102A70000121117101A90870FFE701A8007802B0D7
:102A800080BD000080B588B00790002006900590BA
:102A900004900390029007980068114988421DD164
:102AA000FFE7104908680122520710430860FFE75A
:102AB0000D48026801210A43026000680840019045
:102AC0000198FFE73020029003200390002004903B
:102AD0000520000702A900F015F9FFE708B080BD46
:102AE00000740040381002402C10024085B0049061
:102AF00003910292019300200090049800680090D6
:102B00000398002806D1FFE7029800994018083082
:102B1000009005E002980099401814300090FFE7FB
:102B2000019800990860002005B0704785B00390B7
:102B30000291002001900090FFE70398407901285E
:102B400004D1FFE704A9022008705BE0039901208B
:102B50004871FFE7FFE703990220087102980122FC
:102B600082400398016808681043086002980028B2
:102B70001CD1FFE703980068006804210840019019
:102B800003980068006838210840009001980428E4
:102B90000BD1FFE70098382807D1FFE703980168B9
:102BA0004868012210434860FFE71FE0039800686F
:102BB00000680121890408400190039800680068BA
:102BC0000722D20410400090019888420DD1FFE7FF
:102BD00000980721C904884207D1FFE703980168DC
:102BE0004868022210434860FFE7FFE7039901208D
:102BF0000871FFE7039900204871FFE704A900204E
:102C00000870FFE704A8007805B0704783B0019012
:102C100069460020087001982521405C02280DD0EB
:102C2000FFE701990420C863FFE7019924220020EF
:102C30008854FFE702A90120087020E0019801688C
:102C400008680E229043086001980268116801200C
:102C500081431160019A536C1C210B40014699403D
:102C6000126C5160019925228854FFE701992422B2
:102C700000208854FFE7009802A90870FFE702A827
:102C8000007803B0704780B582B00190694600209B
:102C9000087001982521405C022807D0FFE70199C0
:102CA0000420C86369460120087026E00198016885
:102CB00008680E229043086001980268116801209C
:102CC00081431160019A536C1C210B4001469940CD
:102CD000126C5160019925228854FFE70199242242
:102CE00000208854FFE70198806B002804D0FFE79C
:102CF0000198816B8847FFE7FFE76846007802B0DC
:102D000080BD00008CB00B900A91002009900890C3
:102D10000790FFE70A9800680999C840002800D189
:102D200062E10A980068099A0121914008400890E0
:102D30000898002800D153E10A9840680321084010
:102D4000012807D0FFE70A984068032108400228BD
:102D50002CD1FFE70B988068079009984000032169
:102D600081400798884307900A98C16809984000F5
:102D7000814007980843079007980B9988600B9843
:102D8000406807900998012181400798884307907F
:102D90000A98406810210840010909988140079865
:102DA0000843079007980B994860FFE70A98406826
:102DB00003210840032816D0FFE70B98C06807904E
:102DC00009984000032181400798884307900A989A
:102DD0008168099840008140079808430790079848
:102DE0000B99C860FFE70A98406803210840022851
:102DF00020D1FFE70B980999C90889004018006A9B
:102E0000079009984007C00E0F218140079888431A
:102E100007900A98016909984007C00E81400798F9
:102E20000843079007980B99099AD20892008918CD
:102E30000862FFE70B98006807900998410003209B
:102E400002468A400799914307910A9949680140CF
:102E500009984000814007980843079007980B990C
:102E600008600A9880798007002800D1B7E0AB4954
:102E700008680122104308600998032188435B49D0
:102E80004058079009988007000F0F21814007984C
:102E9000884307900B9805210907884203D1FFE773
:102EA0000020069038E00B985149884203D1FFE793
:102EB000012005902DE00B984E49884203D1FFE791
:102EC0000220049022E00B984B49884203D1FFE78F
:102ED0000320039017E00B984849884203D1FFE78D
:102EE000042002900CE00B99454A0520062300932C
:102EF0009142019001D00098019001980290FFE763
:102F000002980390FFE703980490FFE70498059068
:102F1000FFE705980690FFE7069909988007000FDC
:102F20008140079808430790079809990322914325
:102F30002E4A8850334800680790089907988843BC
:102F400007900A988079C006002805D5FFE7089900
:102F5000079808430790FFE707982A4908602A481E
:102F60000068079008990798884307900A98807925
:102F70008006002805D5FFE70899079808430790C1
:102F8000FFE70798204908602048006807900899E3
:102F90000798884307900A9880798007002805D50C
:102FA000FFE70899079808430790FFE70798174934
:102FB00008601748006807900899079888430790A9
:102FC0000A988079C007002805D0FFE7089907987C
:102FD00008430790FFE707980D490860FFE7FFE700
:102FE0000998401C099095E60CB070470800014014
:102FF0000004005000080050000C00500010005069
:10300000001C0050080401400C040140040401406D
:103010000004014083B0029001A80180684602705C
:103020000078002805D0FFE701A800880299886190
:1030300004E001A8008802998862FFE703B07047A6
:10304000054800687047C0462C4802780249086865
:10305000801808607047C0463804002080B582B0F0
:1030600001A9002008700A4A116840231943116021
:1030700000F010F8002804D0FFE701A90120087033
:1030800002E000F03FF8FFE701A8007802B080BD41
:103090000020024080B584B002901748006801907B
:1030A000164801787D20C000FDF766FA01460198B8
:1030B000FDF762FA01F06CF8002804D0FFE703A9DD
:1030C0000120087014E00298032809D8FFE702994C
:1030D0000022D04300F02FF802980949086003E06D
:1030E00003A90120087003E003A900200870FFE78E
:1030F00003A8007804B080BD040000207300002005
:103100007400002005490868012210430860E64960
:1031100008681207104308607047C0463410024028
:1031200080B582B0014601A801700021405603F02D
:1031300077FD02B080BD80B584B0034603A803705C
:103140000291019200214056029903F07FFD04B0E4
:1031500080BD000080B586B0049001A900200870F1
:103160000498006820210840202806D0FFE7049832
:1031700040780007002800D41FE1049800788006FA
:10318000002801D5FFE7FFE70498407800070028F2
:1031900001D5FFE7FFE7C4480068C000002809D454
:1031A000FFE7C14A1168012003071943116001A913
:1031B0000870FFE7BD480068C00500281DD4FFE780
:1031C000BA4908680122120210430860FFF738FF6D
:1031D0000390FFE7B5480068C00500280CD4FFE75E
:1031E000FFF72EFF0399401A652804D3FFE705A9CE
:1031F0000320087053E1EDE7FFE7AD4800680321C5
:103200000A051040029002980499496811408842CA
:1032100009D1FFE702980499896803221205114039
:10322000884214D0FFE7049840680321090408404D
:1032300088420BD1FFE79E4800688003002804D530
:10324000FFE705A90120087029E1FFE7FFE799489A
:10325000006803210904084002900298002851D018
:10326000FFE702980499496803221204114088423A
:1032700007D0FFE7049800682021084020280FD0DD
:10328000FFE70298049989680322120411408842DA
:1032900038D0FFE7049840780007002832D5FFE7D0
:1032A00084490868032212049043029008680122AE
:1032B000D2041043086008689043086002980860D0
:1032C00002A84078C00700281BD0FFE7FFF7B8FE30
:1032D0000390FFE777480068012149020840400A4F
:1032E00000280DD1FFE7FFF7ABFE0399401A7349A1
:1032F000884204D3FFE705A903200870CFE0E9E77F
:10330000FFE7FFE7049840780007002821D5FFE792
:10331000FFE7FFE70498806803210904084088421A
:103320000BD1FFE762490868032213059843049A0A
:1033300092681A4080180860FFE7FFE704988268E7
:103340000320000402405B49086810430860FFE75F
:10335000FFE7049800788006002821D5FFE7FFE703
:10336000FFE70498406803210904084088420BD114
:10337000FFE74F490868032213059843049A5268EF
:103380001A4080180860FFE7FFE7049842680320AE
:10339000000402404749086810430860FFE7FFE760
:1033A00001A80078012807D1FFE73F4908680122FA
:1033B000120790430860FFE7FFE704980078C00712
:1033C000002809D0FFE73C49086803229043049A8B
:1033D000D26810430860FFE704980078800700284F
:1033E00009D5FFE7344908680C229043049A126912
:1033F00010430860FFE704980078400700280AD5CA
:10340000FFE72D490868032292029043049A52690B
:1034100010430860FFE704980078000700280AD5E9
:10342000FFE725490868032212039043049A926932
:1034300010430860FFE704984078C00700280AD0CE
:10344000FFE71D490868032212049043049AD269D9
:1034500010430860FFE704980078400600280AD56A
:10346000FFE715490868012292069043049A526AC0
:1034700010430860FFE704980078000600280AD58A
:10348000FFE70D490868032292049043049A126AE8
:1034900010430860FFE705A900200870FFE705A8B2
:1034A000007806B080BDC046381002400070004071
:1034B00000100240501002404C10024089130000DE
:1034C00080B586B0049003910498002804D1FFE7EA
:1034D00005A90120087062E10398B3490968012237
:1034E0001140884221D9FFE7AF4908680122904383
:1034F000039A10430860FFF7A3FD0290FFE7AA4874
:10350000006801210840039988420DD0FFE7FFF7CA
:1035100097FD0299401AA549884204D3FFE705A9FF
:10352000032008703BE1EAE7FFE704980078800792
:10353000002809D5FFE7F3490868F0229043049A70
:10354000926810430860FFE704980078C0070028DD
:1035500000D1BCE00498406802280ED1FFE7EB4898
:103560000068012149040840400C002804D1FFE70D
:1035700005A90120087012E134E00498406803288E
:103580000ED1FFE7E1480068012149060840400EDE
:10359000002804D1FFE705A901200870FFE020E022
:1035A0000498406801280DD1FFE7D848006804213D
:1035B00008408008002804D1FFE705A90120087011
:1035C000EDE00DE0D1480068012149020840400AC1
:1035D000002804D1FFE705A901200870DFE0FFE71C
:1035E000FFE7FFE7C749086803229043049A52683F
:1035F00010430860FFF724FD0290049840680228F9
:1036000016D1FFE7FFE7BF4800680C2108400828F3
:103610000DD0FFE7FFF714FD0299401A6349884275
:1036200004D3FFE705A903200870B8E0EBE74DE0FD
:1036300004984068032816D1FFE7FFE7B148006807
:103640000C2108400C280DD0FFE7FFF7F9FC029988
:10365000401A5649884204D3FFE705A903200870A1
:103660009DE0EBE731E004984068012816D1FFE7C0
:10367000FFE7A44800680C21084004280DD0FFE7AC
:10368000FFF7DEFC0299401A4849884204D3FFE75D
:1036900005A90320087082E0EBE715E0FFE79948F1
:1036A00000680007800F00280DD0FFE7FFF7C8FC77
:1036B0000299401A3D49884204D3FFE705A9032037
:1036C00008706CE0EBE7FFE7FFE7FFE7FFE7039831
:1036D0003549096801221140884221D2FFE7324969
:1036E000086801229043039A10430860FFF7A8FC82
:1036F0000290FFE72C4800680121084003998842A6
:103700000DD0FFE7FFF79CFC0299401A2749884239
:1037100004D3FFE705A90320087040E0EAE7FFE7CC
:1037200004980078400700280AD5FFE77549086823
:10373000072212029043049AD26810430860FFE700
:1037400004980078000700280BD5FFE76D4908684A
:103750000722D2029043049A1269D20010430860F3
:10376000FFE700F04DF867490968C9B20A09104936
:10377000895CC840124908600E480068FFF78AFC5F
:10378000014601A801700078002804D0FFE70198E5
:1037900005A9087003E005A900200870FFE705A847
:1037A000007806B080BDC0460020024089130000AA
:1037B000A872000874000020014800687047C046E5
:1037C0000400002080B5FFF7F7FF4E490968072283
:1037D000120211400A0A0949895CC84080BDC046EE
:1037E00080B5FFF7E9FF474909680722D202114077
:1037F000CA0A0249895CC84080BDC046B872000848
:1038000080B588B03F480068079007980C210840B1
:1038100001900C2866D80198810001A04058874685
:10382000E3380008E5380008E5380008E538000806
:1038300055380008E5380008E5380008E538000884
:103840006F380008E5380008E5380008E53800085A
:10385000753800082D480068C006002803D5FFE72A
:103860002C48029002E02A480290FFE746E02A48EE
:10387000029043E007980F2189040840810C2248F8
:10388000405C06900798032189050840800D401C84
:1038900005901C480068C003002808D5FFE706997A
:1038A0001D4848430599FCF767FE049016E0174849
:1038B0000068C006002808D5FFE706991548484368
:1038C0000599FCF759FE049007E006991048484313
:1038D0000599FCF751FE0490FFE7FFE7049802907A
:1038E0000CE0FFE70D48006880B2400B039003989E
:1038F000411C01208840C0030290FFE7029808B0F5
:1039000080BDC0460C100240C0720008001002408A
:103910000024F40000093D0000127A000410024067
:1039200010B58AB008900898002805D1FFE709A9CA
:103930000120087000F015FCFD4801680C221140C0
:103940000491006801210904084003900898007858
:10395000C007002800D18DE0049808280AD0FFE7AE
:1039600004980C2819D1FFE7039801210904884223
:1039700013D1FFE7EF480068012149040840400CDB
:10398000002809D0FFE708984068002804D1FFE725
:1039900009A901200870E4E36BE0FFE7089840689C
:1039A00001210904884207D1FFE7E24908680122A2
:1039B00012041043086021E00898406805210904BA
:1039C00088420BD1FFE7DB490868012293041843C2
:1039D000086008681204104308600EE0D5490868C2
:1039E0000122130498430860086818400290029866
:1039F0000868920490430860FFE7FFE7FFE7089834
:103A0000406800281AD0FFE7FFF71AFB0790FFE78E
:103A1000C8480068012149040840400C00280CD126
:103A2000FFE7FFF70DFB0799401A652804D3FFE76E
:103A300009A90320087094E3EAE719E0FFF700FB07
:103A40000790FFE7BB480068012149040840400C8B
:103A500000280CD0FFE7FFF7F3FA0799401A652812
:103A600004D3FFE709A9032008707AE3EAE7FFE738
:103A7000FFE7FFE7089800788007002800D4A8E057
:103A80000898C068069006A800788006002809D526
:103A9000FFE7A84A10682021084310600698884371
:103AA0000690FFE70498042808D0FFE704980C2844
:103AB00041D1FFE7039800283DD1FFE79D4800680A
:103AC000042108408008002808D0FFE70698002855
:103AD00004D1FFE709A90120087042E3964908686C
:103AE0001F2212029043089A1269120210430860C2
:103AF0009049086809229043069A10430860FFE73E
:103B0000FFF77EFE8A490968C9B20A098B49895CB8
:103B1000C8408B4908608B480068FFF7BBFA014634
:103B200005A801700078002804D0FFE7059809A9CE
:103B3000087016E34CE0069800282AD0FFE77D497C
:103B4000086809229043069A10430860FFF778FA44
:103B50000790FFE7774800680421084080080028A4
:103B60000CD1FFE7FFF76CFA0799401A032804D33A
:103B7000FFE709A903200870F3E2EBE76E49086844
:103B80001F2212029043089A126912021043086021
:103B90001DE068490868012290430860FFF750FA69
:103BA0000790FFE763480068042108408008002868
:103BB0000CD0FFE7FFF744FA0799401A032804D313
:103BC000FFE709A903200870CBE2EBE7FFE7FFE777
:103BD000FFE708980078C006002800D4A1E0049808
:103BE000002845D1FFE753480068012149020840F9
:103BF000400A002809D0FFE70898C069002804D1CE
:103C0000FFE709A901200870ABE24B4908680722C9
:103C100052039043089A526A104308600868FF22D2
:103C200012069043089A126A1206801808600898D3
:103C3000406A400B411C01208840C0033C49096890
:103C4000C9B20A093D49895CC8403D4908603D4800
:103C50000068FFF71FFA014605A8017000780028E8
:103C600004D0FFE7059809A908707AE2FFE757E05A
:103C70000898C069002832D0FFE72E490868012261
:103C8000120210430860FFF7DBF90790FFE72948AD
:103C90000068012149020840400A00280CD1FFE7D2
:103CA000FFF7CEF90799401A032804D3FFE709A9C3
:103CB0000320087055E2EAE71F490868072252030B
:103CC0009043089A526A104308600868FF2212065F
:103CD0009043089A126A1206801808601FE015497E
:103CE00008680122120290430860FFF7A9F90790C3
:103CF000FFE710480068012149020840400A0028F7
:103D00000CD0FFE7FFF79CF90799401A032804D36A
:103D1000FFE709A90320087023E2EAE7FFE7FFE7CE
:103D2000FFE708980078000700284FD50CE0C04650
:103D30000C1002400010024004100240A87200085B
:103D400004000020740000200898406900281ED05C
:103D5000FFE7FD490868012210430860FFF770F98A
:103D60000790FFE7F8480068022108404008002853
:103D70000CD1FFE7FFF764F90799401A032804D331
:103D8000FFE709A903200870EBE1EBE71DE0F94923
:103D90000868012290430860FFF752F90790FFE797
:103DA000F448006802210840400800280CD0FFE7D2
:103DB000FFF746F90799401A032804D3FFE709A93A
:103DC00003200870CDE1EBE7FFE7FFE708980078F4
:103DD0004007002800D4BBE001A900200870E64895
:103DE0000068C000002809D4FFE7E34A11680120F9
:103DF00003071943116001A90870FFE7DF48006855
:103E0000C00500281DD4FFE7DC4908680122120222
:103E100010430860FFF714F90790FFE7D7480068E0
:103E2000C00500280CD4FFE7FFF70AF90799401AEC
:103E3000652804D3FFE709A90320087091E1EDE7A5
:103E4000FFE7FFE70898806801210902884207D14F
:103E5000FFE7C849086801221202104308602EE0FB
:103E60000898806800280BD1FFE7C2490868012242
:103E700013029843086008689202904308601DE0AE
:103E8000089880680521090288420BD1FFE7B949EB
:103E90000868012293021843086008681202104360
:103EA00008600AE0B34908680122130298430860D9
:103EB0000868920290430860FFE7FFE7FFE7FFE72B
:103EC0000898806800281BD0FFE7FFF7B9F8079033
:103ED000FFE7A8480068012149020840400A00287D
:103EE0000DD1FFE7FFF7ACF80799401AA4498842C3
:103EF00004D3FFE709A90320087032E1E9E71AE0DB
:103F0000FFF79EF80790FFE79A48006801214902F1
:103F10000840400A00280DD0FFE7FFF791F8079905
:103F2000401A9749884204D3FFE709A90320087083
:103F300017E1E9E7FFE701A80078012807D1FFE7CB
:103F40008D4908680122120790430860FFE7FFE7E8
:103F5000089800788006002854D5FFE70898806903
:103F6000002829D0FFE7FFE78649086801221043AF
:103F7000086086490868104308608349086852034E
:103F800010430860FFE7FFF75BF80790FFE77D4805
:103F9000006802210840400800280CD1FFE7FFF725
:103FA0004FF80799401A032804D3FFE709A9032013
:103FB0000870D6E0EBE724E0FFE7724908680122C9
:103FC0009043086070490868520390430860FFE717
:103FD000FFF736F80790FFE76A48006802210840BB
:103FE000400800280CD0FFE7FFF72AF80799401A8D
:103FF000032804D3FFE709A903200870B1E0EBE729
:10400000FFE7FFE70898806A002800D1A5E0049840
:104010000C2872D0FFE70898806A02284CD1FFE78D
:10402000534908680122120690430860FFF708F818
:104030000790FFE74E480068012149060840400EFE
:1040400000280CD0FFE7FEF7FBFF0799401A032872
:1040500004D3FFE709A90320087082E0EAE7434997
:104060000868FD2212049043089BDA6A1C6B224305
:104070005B6B1A43104308603D4908680122120631
:1040800010430860FEF7DCFF0790FFE73848006840
:10409000012149060840400E00280CD1FFE7FEF739
:1040A000CFFF0799401A032804D3FFE709A903208B
:1040B000087056E0EAE71FE02D4908680122120661
:1040C00090430860FEF7BCFF0790FFE728480068B0
:1040D000012149060840400E00280CD0FFE7FEF7FA
:1040E000AFFF0799401A032804D3FFE709A903206B
:1040F000087036E0EAE7FFE72EE00898806A0128BA
:1041000004D1FFE709A9012008702AE017480068D8
:10411000039003980121090408400899C96A88425C
:1041200014D1FFE703980F21890408400899096B0F
:1041300088420BD1FFE703980321890508400899BD
:10414000496B884206D001E05010024009A90120C5
:10415000087006E0FFE7FFE7FFE709A90020087005
:10416000FFE709A800780AB010BDC0460C10024055
:104170000010024050100240381002400070004011
:104180008913000008100240200001403410024052
:1041900080B582B00190019801F070FC02B080BD42
:1041A00085B003900291FFE703983821405C012815
:1041B00004D1FFE704A90220087053E003993822D4
:1041C00001208854FFE7FFE7039939220220885431
:1041D0000398006840680190039800688068009028
:1041E0000198702188430190029801680198084362
:1041F00001900198039909684860039800680121BB
:104200008907884212D0FFE70398006885498842F1
:104210000CD0FFE7039800688349884206D0FFE787
:1042200003980068814988420ED1FFE700988021F9
:1042300088430090029841680098084300900098D5
:10424000039909688860FFE703993922012088549F
:10425000FFE70399382200208854FFE704A90020D3
:104260000870FFE704A8007805B0704780B582B0F9
:1042700000900098002804D1FFE701A901200870F0
:1042800030E000983921405C002808D1FFE7009910
:10429000382200208854009800F028F8FFE70099A1
:1042A000392202208854009901C901F07BFC009951
:1042B0003E2201208854FFE700993A2201208854C9
:1042C00000993B22885400993C22885400993D2251
:1042D0008854FFE7009939220120885401A9002061
:1042E0000870FFE701A8007802B080BD80B584B0F7
:1042F0000390039800680121890788420FD1FFE7E6
:104300001F4908680122104308600F200290002214
:104310001146FEF710FF0298FEF702FF2BE003980C
:104320000068404988420FD1FFE71549086802221A
:10433000104308601020019000221146FEF7FBFE9A
:104340000198FEF7EDFE15E0039800680B498842DE
:104350000FD1FFE70A4908682022104308601220A5
:10436000009000221146FEF7E6FE0098FEF7D8FE08
:10437000FFE7FFE7FFE704B080BDC0460014004040
:104380003810024083B0019001983921405C012827
:1043900004D0FFE702A9012008703EE0019939220C
:1043A0000220885401980268D06801210843D06037
:1043B000019800688907884212D0FFE701980068D9
:1043C000184988420CD0FFE70198006816498842D6
:1043D00006D0FFE7019800681449884212D1FFE730
:1043E000019800688068072108400090009806281E
:1043F00007D0FFE7019801680868012210430860B0
:10440000FFE706E001980168086801221043086090
:10441000FFE702A900200870FFE702A8007803B0B8
:104420007047C046000400400008014000140140ED
:1044300081B0009000980168C86801229043C8606C
:10444000FFE700980068006A0949084207D1FFE7C2
:10445000009801680868012290430860FFE7FFE7C1
:104460000099392201208854002001B07047C046CD
:104470001111000080B586B00490039102A90020BC
:104480000870FFE704983821405C012804D1FFE759
:1044900005A902200870AEE0049938220120885452
:1044A000FFE7FFE704993922022088540498006846
:1044B0008068019001987721884301900198FF213D
:1044C000090288430190019804990968886003985B
:1044D00000680090002875D0FFE70098102871D080
:1044E000FFE7009820286DD0FFE70098302869D0BA
:1044F000FFE70098402858D0FFE7009850283AD0AE
:10450000FFE70098602843D0FFE7009870280DD09F
:10451000FFE7009801210903884206D0FFE70098D1
:1045200001214903884216D053E056E00498006800
:10453000039B99685A68DB6801F09CFB049800684B
:1045400080680190019877210843019001980499AF
:104550000968886041E004980068039B99685A687C
:10456000DB6801F087FB04980168886801229203E8
:104570001043886031E004980068039A5168D2685B
:1045800001F0A8FB04980068502101F08EFB24E0A4
:1045900004980068039A5168D26801F0C3FB04983C
:1045A0000068602101F081FB17E004980068039A1D
:1045B0005168D26801F08EFB04980068402101F038
:1045C00074FB0AE0049800680399096801F06DFB28
:1045D00003E002A901200870FFE7049939220120B5
:1045E0008854FFE70499382200208854FFE7029896
:1045F00005A90870FFE705A8007806B080BD81B066
:10460000009001B0704780B584B0039003980068B3
:10461000C0680290039800680069019001A80078C2
:104620008007002825D5FFE702A80078800700282A
:104630001ED5FFE7039801680220C0430861039973
:10464000012008760398006880698007002804D05C
:10465000FFE70398FFF7D3FF06E0039800F0BAF8EE
:10466000039800F0BBF8FFE7039900200876FFE706
:10467000FFE701A800784007002826D5FFE702A839
:104680000078400700281FD5FFE703980168042041
:10469000C043086103990220087603980068806986
:1046A0008005800F002804D0FFE70398FFF7A7FFDD
:1046B00006E0039800F08EF8039800F08FF8FFE70B
:1046C000039900200876FFE7FFE701A800780007BC
:1046D000002825D5FFE702A80078000700281ED58E
:1046E000FFE7039801680820C0430861039904208C
:1046F000087603980068C0698007002804D0FFE7A7
:104700000398FFF77CFF06E0039800F063F8039836
:1047100000F064F8FFE7039900200876FFE7FFE761
:1047200001A80078C006002826D5FFE702A8007877
:10473000C00600281FD5FFE7039801681020C0437A
:10474000086103990820087603980068C06980050D
:10475000800F002804D0FFE70398FFF750FF06E022
:10476000039800F037F8039800F038F8FFE7039952
:1047700000200876FFE7FFE701A80078C0070028BF
:1047800010D0FFE702A80078C007002809D0FFE793
:10479000039801680120C0430861039800F022F8E3
:1047A000FFE7FFE701A800784006002810D5FFE7E3
:1047B00002A800784006002809D5FFE703980168A1
:1047C0004020C0430861039800F018FAFFE7FFE7B4
:1047D00004B080BD81B0009001B0704781B00090FE
:1047E00001B07047B0B5A4B023902398E149884246
:1047F00000D039E1E0480078642800D034E100209E
:1048000022902190FFE72198DB49097888421CDA41
:10481000FFE721984100E448405AFCF76DF81690F4
:10482000D84800784100F448405AFCF75DF801464A
:104830001698FBF785FF0146229802F057FB22905D
:10484000FFE72198401C2190DDE72298D749FBF72C
:1048500077FF1090CB48119000784100D448129017
:10486000405AFCF741F80146109802F0AFFB11994D
:1048700003461298CF4A13601268159209784900CE
:10488000405A1390FCF730F8014613981491FCF746
:1048900033F8C949FBF754FF0146149802F026FB90
:1048A0000146159802F0A8FA002808D1FFE7CC4885
:1048B000CC49FBF7D9FDC9490520086093E020A940
:1048C00003200870BF491CA80F22FBF7F3FDAD4879
:1048D00000780F90032853D80F98810001A040580A
:1048E0008746C046F54800081549000839490008C0
:1048F0005D490008B6488278B1498A7042784A70AA
:1049000000780870B3491CA8FBF7AEFD20A903206E
:10491000087035E0A948C278A949CA7082788A70BF
:1049200042784A7000780870A8491CA8FBF79CFDE3
:1049300020A90120087023E0A048C278A049CA70CD
:1049400082788A7042784A70007808709E491CA864
:10495000FBF78AFD20A90220087011E09748C27871
:104960009749CA7082788A7042784A7000780870D5
:1049700094491CA8FBF778FD20A903200870FFE7E5
:104980008C480B90006894490A9102F01FFB02F0DA
:1049900047FA0A99FBF7D4FE01460B9801600068BC
:1049A000FBF7A4FE864A0C9202920191009000212E
:1049B0001CAA0D920846FBF737FD01460B98874A63
:1049C00011600068FBF792FE02460C980B460D99A9
:1049D000009083480E90FBF711FD0E9920A80278F5
:1049E0002C208854FFE764490020059008701920A6
:1049F00004901B901BA802887B48794906910A23E2
:104A0000099300F0BFFD049978480890FBF7AFFDCB
:104A1000059A089818A90A72754A1992754A189247
:104A200008221792179AFBF745FD069908986B4ADA
:104A3000079213689B1E1360179BC0181268FBF740
:104A400039FD079A0899099B17980C1815682220B8
:104A50006055179812688018401C82B24B4800F0CD
:104A600091FD02F08FF982E02398444988425DD19C
:104A7000FFE741480078632844DCFFE745480078B9
:104A8000C00700280CD1FFE7404844490A231A46D2
:104A900000F078FD02F076F93E4901200870FFE74A
:104AA0003F48007801282CD1FFE73E48FDF71AFF68
:104AB000002803D0FFE7FDF77DFB03E03849002025
:104AC0000870FFE737480A21FDF75CFE002817D180
:104AD000FFE73448FDF7BEFC800500280FD5FFE74F
:104AE0003048FDF7BDFC24490A7853002E4AD052C5
:104AF0000878401C08702A4901200870FFE7FFE78A
:104B0000FFE712E023480078C00700280CD0FFE739
:104B10001E48214908220A2300F034FD02F032F930
:104B20001C4900200870FFE7FFE71FE023981449A5
:104B300088421AD1FFE71349002008701248012269
:104B40001146FEF767FA1148114910220A2300F0B6
:104B500019FD02F017F90A48FFF76AFC002803D094
:104B6000FFE7FDF727FBFFE7FFE7FFE7FFE724B0DD
:104B7000B0BDC046B00200201E040020700200201C
:104B800030020020BD01002000040050F00200208F
:104B9000190000201F0400204800002050000020C1
:104BA00000000020C0010020D80000200000C84202
:104BB0005C000020A0010020000048436C000020A1
:104BC00000040020F9720008EB720008DE72000891
:104BD00070000020CF72000800007A4420040020FA
:104BE000A4010020C97200087803002004040020FA
:104BF00078743D2274332E746400002081B00090DC
:104C000001B0704782B001906846018002B07047E1
:104C100081B0009001B0704781B0009001B0704742
:104C200080B5A8B00F900F980068C0690E900F98DB
:104C3000006800680D900F98006880680C900E98CE
:104C4000F34908400B900B98002817D1FFE70EA8F6
:104C500000788006002810D5FFE70DA800788006B0
:104C600000280AD5FFE70F98806E002804D0FFE7E0
:104C70000F98816E8847FFE773E2FFE70B980028E3
:104C800000D1FBE00CA80078C007002805D1FFE7A1
:104C90000D98E049084200D1F0E00EA80078C00766
:104CA000002810D0FFE70DA84078C00700280AD0E0
:104CB000FFE70F980068012303620F998422885848
:104CC00018438850FFE70EA800788007002811D508
:104CD000FFE70CA80078C00700280BD0FFE70F986B
:104CE0000168022008620F9984228858042318431F
:104CF0008850FFE70EA800784007002811D5FFE78D
:104D00000CA80078C00700280BD0FFE70F980168B7
:104D1000042008620F99842288580223184388507F
:104D2000FFE70EA800780007002816D5FFE70DA8BA
:104D300000788006002806D4FFE70CA80078C0079A
:104D400000280AD0FFE70F980068082303620F9934
:104D50008422885818438850FFE70EA8407800073F
:104D6000002812D5FFE70DA8C078400700280CD511
:104D7000FFE70F9801680120C00208620F998422A2
:104D80008858202318438850FFE70F988421405803
:104D9000002872D0FFE70EA800788006002810D502
:104DA000FFE70DA80078800600280AD5FFE70F98D6
:104DB000806E002804D0FFE70F98816E8847FFE7D8
:104DC000FFE70F98842140580A900F980068806888
:104DD00040210840402806D0FFE70AA80078282193
:104DE000084241D0FFE70F9801F031F90F980068B1
:104DF00080684006002832D5FFE7FFE7EFF3108018
:104E000017901798099001202790279880F3108811
:104E10000F9801688868402290438860099826901E
:104E2000269880F31088FFE70F98406F002811D074
:104E3000FFE70F98416FCC4888630F98406FFDF7EC
:104E400022FF002805D0FFE70F98406F816B88474D
:104E5000FFE703E00F98FFF7DFFEFFE703E00F989F
:104E6000FFF7DAFEFFE707E00F98FFF7D5FE0F998F
:104E7000842200208850FFE7FFE772E10F98006E60
:104E8000012800D032E10EA80078C006002800D426
:104E90002CE10DA80078C006002800D426E10F9868
:104EA0000168102008620F9800688068400600289A
:104EB00000D4B1E00F98406F0068416808A80180F5
:104EC0000088002800D187E008A800880F995822A0
:104ED000895A884200DB7FE008980F995A2288524D
:104EE0000F98406F006800688006002867D4FFE7CD
:104EF000FFE7EFF310801690169807900122259295
:104F0000259880F310880F98016808681202904372
:104F1000086007982490249880F31088FFE7FFE743
:104F2000EFF3108015901598069001222392239894
:104F300080F310880F98016888689043886006980D
:104F40002290229880F31088FFE7FFE7EFF31080AC
:104F500014901498059001202190219880F31088D6
:104F60000F980168886840229043886005982090D7
:104F7000209880F31088FFE70F9980222020885026
:104F80000F9900200866FFE7EFF310801390139845
:104F9000049001201F901F9880F310880F980168DB
:104FA000086810229043086004981E901E9880F3B1
:104FB0001088FFE70F98406FFDF728FEFFE70F9975
:104FC000022048660F985821415A5A22825A891A5B
:104FD00089B2FFF717FE1AE008A800880F99582237
:104FE000895A884212D1FFE70F98406F0068006825
:104FF0008006002809D5FFE70F99022048660F9820
:105000005821415AFFF7FEFDFFE7FFE7FFE7A8E061
:105010000F080000200100040F9A5820105A5A214E
:10502000525A801A03AA10800F98405A00285CD068
:10503000FFE703A80088002857D0FFE7FFE7EFF35A
:10504000108012901298029001201D901D9880F3FC
:1050500010880F980168086809225201904308607F
:1050600002981C901C9880F31088FFE7FFE7EFF38D
:10507000108011901198019001221B921B9880F3CF
:1050800010880F98016888689043886001981A908A
:105090001A9880F31088FFE70F998022202088500B
:1050A0000F99002008660F998866FFE7EFF31080DC
:1050B00010901098009001201990199880F3108892
:1050C0000F980168086810229043086000981890B3
:1050D000189880F31088FFE70F99022048660F9810
:1050E00003A90988FFF78EFDFFE73AE00EA8807854
:1050F000C00600280FD5FFE70CA8807840060028DE
:1051000009D5FFE70F9801680120000508620F9894
:10511000FFF77EFD25E00EA800780006002810D5D8
:10512000FFE70DA80078000600280AD5FFE70F98D2
:10513000C06E002804D0FFE70F98C16E8847FFE7D4
:105140000FE00EA80078400600280AD5FFE70DA85A
:1051500000784006002804D5FFE70F9800F0CFFF45
:10516000FFE728B080BDC0463160000880B582B03E
:1051700000900098002804D1FFE701A901200870E1
:1051800048E000988069002801D0FFE700E0FFE7D1
:105190000098C06F002808D1FFE70099782200200E
:1051A0008854009800F03AF8FFE700992420C86777
:1051B0000098016808680122904308600098406ADE
:1051C000002804D0FFE7009800F0D6FDFFE7009824
:1051D00001F04AF9012804D1FFE701A90120087074
:1051E00018E00098016848680922D202904348609C
:1051F0000098016888682A229043886000980168B6
:105200000868012210430860009800F063FE01A9BD
:105210000870FFE701A8007802B080BD80B58AB0B1
:105220000990002008900790069005900490099836
:105230000068CA4988422BD1FFE72D49086801223E
:10524000920310430860FFE72848026801210A43DF
:1052500002600068084003900398FFE703204102C2
:1052600004910221059100210091069107900420EC
:1052700008900520000704A9FDF744FD009A1B20B3
:1052800001901146FDF757FF0198FDF749FF27E010
:10529000099800681349884221D1FFE7124908683C
:1052A0000122520410430860FFE710480268012100
:1052B0000A4302600068084002900298FFE70C2051
:1052C00004900220059000200690032007900420FF
:1052D00008900520000704A9FDF714FDFFE7FFE78C
:1052E0000AB080BD00440040381002402C1002403B
:1052F0003410024080B588B00390029101A802806A
:10530000039880214058202856D1FFE702980028B2
:1053100005D0FFE701A80088002804D1FFE704A911
:10532000012008704CE0039880680121090388423D
:1053300010D1FFE70398006900280BD1FFE702A80E
:105340000078C007002804D0FFE704A901200870F6
:1053500036E0FFE7039900200866039800681A49C1
:10536000884220D0FFE703980068406800020028C8
:1053700018D5FFE7FFE7EFF3108005900598009040
:1053800001220792079880F3108803980168086843
:1053900092061043086000980690069880F31088E3
:1053A000FFE7FFE7FFE70398029901AA128801F0DF
:1053B000DDFA04A9087003E004A902200870FFE7E1
:1053C00004A8007808B080BD0048004080B588B0CF
:1053D0000790079800686149884200D0BBE06048A8
:1053E000604906910122FFF785FF069801785E4823
:1053F000028A8154008A022800DAA7E05A49088A02
:105400004018801E0078FF2800D09FE05649088A87
:105410004018401E0078FF2800D097E05248018ACB
:10542000405CFF2800D091E04F49088A4018001FD7
:105430000078059003280FD0FFE70598042816D1BF
:10544000FFE74A480078012805DBFFE7474908786D
:10545000401E0870FFE70AE044480078022805DC97
:10546000FFE742490878401C0870FFE7FFE7404823
:105470000290012100220392FDF7CCFD0298039ACD
:105480000221FDF7C7FD0298039A0421FDF7C2FD32
:105490000298039A0821FDF7BDFD34480078049076
:1054A000032845D80498810001A040588746C0468B
:1054B000C1540008DD540008F954000815550008CF
:1054C000F54801221146FDF7A5FD25482C4910227B
:1054D0000A2300F057F801F055FC29E0EE480221BC
:1054E0000122FDF797FD1E4824490F220A2300F0F0
:1054F00049F801F047FC1BE0E74804210122FDF7D1
:1055000089FD17481C4910220A2300F03BF801F0DE
:1055100039FC0DE0E04808210122FDF77BFD104831
:10552000144911220A2300F02DF801F02BFCFFE7AB
:105530000D490091002001900882C881888148812E
:105540000881C880888048800880FFE70649088A6B
:10555000401C0882FFE708B080BDC046003801400B
:10556000F00200201D04002024040020BD010020C2
:10557000000400500800002029000020390000200D
:105580001900002010B58AB00890079106A8028083
:1055900005930898C06F202800D09BE0079800284A
:1055A00005D0FFE706A80088002804D1FFE709A975
:1055B0000120087092E00898806801210903884260
:1055C00010D1FFE70898006900280BD1FFE707A872
:1055D0000078C007002804D0FFE709A9012008705F
:1055E0007CE0FFE708998422002088500899212058
:1055F000C867FDF725FD0290069808995022885249
:105600000698089952228852089880680121090357
:1056100088420AD1FFE708980069002805D1FFE712
:10562000002004900798039004E00798049000205D
:105630000390FFE7FFE708985221405A002830D036
:10564000FFE70898029B059900918021002201F054
:105650005DFA002807D0FFE708992020C86709A94C
:10566000032008703AE0049800280BD1FFE7039864
:1056700000881C4908400899096888620398801CC2
:10568000039008E0049800780899096888620498F3
:10569000401C0490FFE708995222885A401E885205
:1056A000C9E70898029B059900914021002201F06A
:1056B0002DFA002807D0FFE708992020C86709A91C
:1056C000032008700AE008992020C86709A9002073
:1056D000087003E009A902200870FFE709A8007814
:1056E0000AB010BDFF01000081B0009001B070470A
:1056F000FFE7FEE780B584B000210091039102919D
:105700001A4801901A4A0260C163021D03239B07D5
:1057100043608160816301230361C1601177517728
:105720008162FF22C23242622C22815404224261F1
:10573000016381614163C161FCF79AFE002803D0D7
:10574000FFE7FCF737FDFFE70A480290012000035E
:105750000390064802A9FCF7CFFD002803D0FFE71D
:10576000FCF728FDFFE704B080BDC046C001002063
:10577000002401404000001880B582B00020019054
:105780000090124812490160FDF754F9002803D037
:10579000FFE7FCF70FFDFFE70022009201920B48A4
:1057A0006946FDF7FBF8002803D0FFE7FCF702FD90
:1057B000FFE7064869461022FDF7F0F8002803D0FD
:1057C000FFE7FCF7F7FCFFE702B080BD1C020020FA
:1057D0000074004010B58EB000200D900C900B901E
:1057E0000A900990FFE72B48026804210A430260EF
:1057F0000068084008900898FFE7FFE7254802681E
:1058000080210A4302600068084007900798FFE77C
:10581000FFE72048026801210A430260006808404F
:1058200006900698FFE7FFE71A48026802210A433C
:1058300002600068084005900598FFE7164801904F
:105840000F24002203922146FDF7E4FB0398012177
:10585000009149030991212109040A910B900F48F5
:1058600009A90291FDF74EFA009B01980299039A4B
:1058700009940A930B920C92FDF744FA039A1B20A9
:1058800004901146FDF757FC0498FDF749FC0EB053
:1058900010BDC0462C10024000040050000800500B
:1058A00080B588B00021019107910691059104917E
:1058B00003910291B248012292070260464A426077
:1058C0008160464AC26001614161FEF7CFFC002859
:1058D00003D0FFE7FCF76EFCFFE701200003049014
:1058E000A74804A9FEF7C6FD002803D0FFE7FCF790
:1058F00061FCFFE7002002900390A14802A9FEF797
:105900004FFC002803D0FFE7FCF754FCFFE708B08A
:1059100080BDC04680B588B00021019107910691F5
:1059200005910491039102919948CF4A02602A4A55
:10593000426081600922C260016180214161FEF7FD
:1059400095FC002803D0FFE7FCF734FCFFE70120BB
:10595000000304908E4804A9FEF78CFD002803D0B4
:10596000FFE7FCF727FCFFE7002002900390884840
:1059700002A9FEF715FC002803D0FFE7FCF71AFC8C
:10598000FFE708B080BDC04680B582B0002101911C
:10599000009183480F4A02600F4A426081600F4ABB
:1059A000C2604161FEF762FC002803D0FFE7FCF70C
:1059B00001FCFFE700200090019079486946FEF75E
:1059C000EFFB002803D0FFE7FCF7F4FBFFE702B092
:1059D00080BDC046001400403F1F0000E7030000E8
:1059E00080B582B00F4801900F4901604B21C90179
:1059F000416000218160C16001610C2242618161CE
:105A0000C16101624162FFF7B1FB002803D0FFE7EB
:105A1000FCF7D0FBFFE7034804490A22FFF76AFCC2
:105A200002B080BDF0020020003801401D040020BB
:105A300080B582B00D4801900D490160E121490215
:105A4000416000218160C16001610C22426181617D
:105A5000C16101624162FFF789FB002803D0FFE7C3
:105A6000FCF7A8FBFFE702B080BDC046780300202A
:105A700000440040FFE7FEE77047704780B584B000
:105A800002900298401E000E002803D0FFE701207C
:105A9000039011E00298401E09490860002001901F
:105AA000C043032101F0D2F8019806490860064A74
:105AB000072111600390FFE7039804B080BDC04642
:105AC00014E000E018E000E010E000E080B5FDF731
:105AD000BBFA80BDB0B5A0B012A802903821FAF789
